{
  "_format": "hh-sol-artifact-1",
  "contractName": "FileNFT",
  "sourceName": "contracts/Genic.sol",
  "abi": [
    {
      "inputs": [],
      "stateMutability": "nonpayable",
      "type": "constructor"
    },
    {
      "anonymous": false,
      "inputs": [
        {
          "indexed": true,
          "internalType": "address",
          "name": "owner",
          "type": "address"
        },
        {
          "indexed": true,
          "internalType": "address",
          "name": "approved",
          "type": "address"
        },
        {
          "indexed": true,
          "internalType": "uint256",
          "name": "tokenId",
          "type": "uint256"
        }
      ],
      "name": "Approval",
      "type": "event"
    },
    {
      "anonymous": false,
      "inputs": [
        {
          "indexed": true,
          "internalType": "address",
          "name": "owner",
          "type": "address"
        },
        {
          "indexed": true,
          "internalType": "address",
          "name": "operator",
          "type": "address"
        },
        {
          "indexed": false,
          "internalType": "bool",
          "name": "approved",
          "type": "bool"
        }
      ],
      "name": "ApprovalForAll",
      "type": "event"
    },
    {
      "anonymous": false,
      "inputs": [
        {
          "indexed": false,
          "internalType": "address",
          "name": "account",
          "type": "address"
        }
      ],
      "name": "MonthlyPaymentMade",
      "type": "event"
    },
    {
      "anonymous": false,
      "inputs": [
        {
          "indexed": true,
          "internalType": "uint256",
          "name": "tokenId",
          "type": "uint256"
        },
        {
          "indexed": false,
          "internalType": "address",
          "name": "owner",
          "type": "address"
        },
        {
          "indexed": false,
          "internalType": "address",
          "name": "storageDrive",
          "type": "address"
        },
        {
          "indexed": false,
          "internalType": "string",
          "name": "fileName",
          "type": "string"
        },
        {
          "indexed": false,
          "internalType": "string",
          "name": "mdescription",
          "type": "string"
        },
        {
          "indexed": false,
          "internalType": "uint256",
          "name": "fileSize",
          "type": "uint256"
        },
        {
          "indexed": false,
          "internalType": "uint256",
          "name": "dateCreated",
          "type": "uint256"
        },
        {
          "indexed": false,
          "internalType": "bool",
          "name": "shared",
          "type": "bool"
        }
      ],
      "name": "StorageItemCreated",
      "type": "event"
    },
    {
      "anonymous": false,
      "inputs": [
        {
          "indexed": false,
          "internalType": "address",
          "name": "account",
          "type": "address"
        }
      ],
      "name": "SubscriptionMade",
      "type": "event"
    },
    {
      "anonymous": false,
      "inputs": [
        {
          "indexed": true,
          "internalType": "address",
          "name": "from",
          "type": "address"
        },
        {
          "indexed": true,
          "internalType": "address",
          "name": "to",
          "type": "address"
        },
        {
          "indexed": true,
          "internalType": "uint256",
          "name": "tokenId",
          "type": "uint256"
        }
      ],
      "name": "Transfer",
      "type": "event"
    },
    {
      "anonymous": false,
      "inputs": [
        {
          "indexed": true,
          "internalType": "uint256",
          "name": "vId",
          "type": "uint256"
        },
        {
          "indexed": false,
          "internalType": "uint256",
          "name": "tokenId",
          "type": "uint256"
        },
        {
          "indexed": false,
          "internalType": "address",
          "name": "visitor",
          "type": "address"
        }
      ],
      "name": "ViewItemCreated",
      "type": "event"
    },
    {
      "inputs": [],
      "name": "_tokenIds",
      "outputs": [
        {
          "internalType": "uint256",
          "name": "_value",
          "type": "uint256"
        }
      ],
      "stateMutability": "view",
      "type": "function"
    },
    {
      "inputs": [],
      "name": "_viewIds",
      "outputs": [
        {
          "internalType": "uint256",
          "name": "_value",
          "type": "uint256"
        }
      ],
      "stateMutability": "view",
      "type": "function"
    },
    {
      "inputs": [
        {
          "internalType": "address",
          "name": "to",
          "type": "address"
        },
        {
          "internalType": "uint256",
          "name": "tokenId",
          "type": "uint256"
        }
      ],
      "name": "approve",
      "outputs": [],
      "stateMutability": "nonpayable",
      "type": "function"
    },
    {
      "inputs": [
        {
          "internalType": "address",
          "name": "owner",
          "type": "address"
        }
      ],
      "name": "balanceOf",
      "outputs": [
        {
          "internalType": "uint256",
          "name": "",
          "type": "uint256"
        }
      ],
      "stateMutability": "view",
      "type": "function"
    },
    {
      "inputs": [
        {
          "internalType": "string",
          "name": "tokenURI",
          "type": "string"
        },
        {
          "internalType": "string",
          "name": "fileName",
          "type": "string"
        },
        {
          "internalType": "string",
          "name": "description",
          "type": "string"
        },
        {
          "internalType": "uint256",
          "name": "fileSize",
          "type": "uint256"
        }
      ],
      "name": "createFile",
      "outputs": [
        {
          "internalType": "uint256",
          "name": "",
          "type": "uint256"
        }
      ],
      "stateMutability": "payable",
      "type": "function"
    },
    {
      "inputs": [
        {
          "internalType": "uint256",
          "name": "tokenId",
          "type": "uint256"
        }
      ],
      "name": "createViewItem",
      "outputs": [],
      "stateMutability": "nonpayable",
      "type": "function"
    },
    {
      "inputs": [],
      "name": "fetchAllStorageItems",
      "outputs": [
        {
          "components": [
            {
              "internalType": "uint256",
              "name": "tokenId",
              "type": "uint256"
            },
            {
              "internalType": "address",
              "name": "owner",
              "type": "address"
            },
            {
              "internalType": "address",
              "name": "storageDrive",
              "type": "address"
            },
            {
              "internalType": "string",
              "name": "fileName",
              "type": "string"
            },
            {
              "internalType": "string",
              "name": "description",
              "type": "string"
            },
            {
              "internalType": "uint256",
              "name": "fileSize",
              "type": "uint256"
            },
            {
              "internalType": "uint256",
              "name": "dateCreated",
              "type": "uint256"
            },
            {
              "internalType": "bool",
              "name": "shared",
              "type": "bool"
            }
          ],
          "internalType": "struct FileNFT.StorageItem[]",
          "name": "",
          "type": "tuple[]"
        }
      ],
      "stateMutability": "view",
      "type": "function"
    },
    {
      "inputs": [],
      "name": "fetchMyFiles",
      "outputs": [
        {
          "components": [
            {
              "internalType": "uint256",
              "name": "tokenId",
              "type": "uint256"
            },
            {
              "internalType": "address",
              "name": "owner",
              "type": "address"
            },
            {
              "internalType": "address",
              "name": "storageDrive",
              "type": "address"
            },
            {
              "internalType": "string",
              "name": "fileName",
              "type": "string"
            },
            {
              "internalType": "string",
              "name": "description",
              "type": "string"
            },
            {
              "internalType": "uint256",
              "name": "fileSize",
              "type": "uint256"
            },
            {
              "internalType": "uint256",
              "name": "dateCreated",
              "type": "uint256"
            },
            {
              "internalType": "bool",
              "name": "shared",
              "type": "bool"
            }
          ],
          "internalType": "struct FileNFT.StorageItem[]",
          "name": "",
          "type": "tuple[]"
        }
      ],
      "stateMutability": "view",
      "type": "function"
    },
    {
      "inputs": [
        {
          "internalType": "uint256",
          "name": "_tokenId",
          "type": "uint256"
        }
      ],
      "name": "fetchOneNews",
      "outputs": [
        {
          "components": [
            {
              "internalType": "uint256",
              "name": "tokenId",
              "type": "uint256"
            },
            {
              "internalType": "address",
              "name": "owner",
              "type": "address"
            },
            {
              "internalType": "address",
              "name": "storageDrive",
              "type": "address"
            },
            {
              "internalType": "string",
              "name": "fileName",
              "type": "string"
            },
            {
              "internalType": "string",
              "name": "description",
              "type": "string"
            },
            {
              "internalType": "uint256",
              "name": "fileSize",
              "type": "uint256"
            },
            {
              "internalType": "uint256",
              "name": "dateCreated",
              "type": "uint256"
            },
            {
              "internalType": "bool",
              "name": "shared",
              "type": "bool"
            }
          ],
          "internalType": "struct FileNFT.StorageItem[]",
          "name": "",
          "type": "tuple[]"
        }
      ],
      "stateMutability": "view",
      "type": "function"
    },
    {
      "inputs": [
        {
          "internalType": "uint256",
          "name": "_tokenId",
          "type": "uint256"
        }
      ],
      "name": "fetchViews",
      "outputs": [
        {
          "internalType": "uint256",
          "name": "",
          "type": "uint256"
        }
      ],
      "stateMutability": "view",
      "type": "function"
    },
    {
      "inputs": [
        {
          "internalType": "uint256",
          "name": "tokenId",
          "type": "uint256"
        }
      ],
      "name": "getApproved",
      "outputs": [
        {
          "internalType": "address",
          "name": "",
          "type": "address"
        }
      ],
      "stateMutability": "view",
      "type": "function"
    },
    {
      "inputs": [
        {
          "internalType": "address",
          "name": "owner",
          "type": "address"
        },
        {
          "internalType": "address",
          "name": "operator",
          "type": "address"
        }
      ],
      "name": "isApprovedForAll",
      "outputs": [
        {
          "internalType": "bool",
          "name": "",
          "type": "bool"
        }
      ],
      "stateMutability": "view",
      "type": "function"
    },
    {
      "inputs": [],
      "name": "name",
      "outputs": [
        {
          "internalType": "string",
          "name": "",
          "type": "string"
        }
      ],
      "stateMutability": "view",
      "type": "function"
    },
    {
      "inputs": [
        {
          "internalType": "uint256",
          "name": "tokenId",
          "type": "uint256"
        }
      ],
      "name": "ownerOf",
      "outputs": [
        {
          "internalType": "address",
          "name": "",
          "type": "address"
        }
      ],
      "stateMutability": "view",
      "type": "function"
    },
    {
      "inputs": [],
      "name": "payMonthlyValue",
      "outputs": [],
      "stateMutability": "payable",
      "type": "function"
    },
    {
      "inputs": [
        {
          "internalType": "address",
          "name": "from",
          "type": "address"
        },
        {
          "internalType": "address",
          "name": "to",
          "type": "address"
        },
        {
          "internalType": "uint256",
          "name": "tokenId",
          "type": "uint256"
        }
      ],
      "name": "safeTransferFrom",
      "outputs": [],
      "stateMutability": "nonpayable",
      "type": "function"
    },
    {
      "inputs": [
        {
          "internalType": "address",
          "name": "from",
          "type": "address"
        },
        {
          "internalType": "address",
          "name": "to",
          "type": "address"
        },
        {
          "internalType": "uint256",
          "name": "tokenId",
          "type": "uint256"
        },
        {
          "internalType": "bytes",
          "name": "data",
          "type": "bytes"
        }
      ],
      "name": "safeTransferFrom",
      "outputs": [],
      "stateMutability": "nonpayable",
      "type": "function"
    },
    {
      "inputs": [
        {
          "internalType": "address",
          "name": "operator",
          "type": "address"
        },
        {
          "internalType": "bool",
          "name": "approved",
          "type": "bool"
        }
      ],
      "name": "setApprovalForAll",
      "outputs": [],
      "stateMutability": "nonpayable",
      "type": "function"
    },
    {
      "inputs": [],
      "name": "subscribe",
      "outputs": [],
      "stateMutability": "payable",
      "type": "function"
    },
    {
      "inputs": [
        {
          "internalType": "bytes4",
          "name": "interfaceId",
          "type": "bytes4"
        }
      ],
      "name": "supportsInterface",
      "outputs": [
        {
          "internalType": "bool",
          "name": "",
          "type": "bool"
        }
      ],
      "stateMutability": "view",
      "type": "function"
    },
    {
      "inputs": [],
      "name": "symbol",
      "outputs": [
        {
          "internalType": "string",
          "name": "",
          "type": "string"
        }
      ],
      "stateMutability": "view",
      "type": "function"
    },
    {
      "inputs": [
        {
          "internalType": "uint256",
          "name": "tokenId",
          "type": "uint256"
        }
      ],
      "name": "tokenURI",
      "outputs": [
        {
          "internalType": "string",
          "name": "",
          "type": "string"
        }
      ],
      "stateMutability": "view",
      "type": "function"
    },
    {
      "inputs": [
        {
          "internalType": "address",
          "name": "from",
          "type": "address"
        },
        {
          "internalType": "address",
          "name": "to",
          "type": "address"
        },
        {
          "internalType": "uint256",
          "name": "tokenId",
          "type": "uint256"
        }
      ],
      "name": "transferFrom",
      "outputs": [],
      "stateMutability": "nonpayable",
      "type": "function"
    },
    {
      "inputs": [
        {
          "internalType": "uint256",
          "name": "value",
          "type": "uint256"
        }
      ],
      "name": "withdraw",
      "outputs": [],
      "stateMutability": "nonpayable",
      "type": "function"
    }
  ],
  "bytecode": "0x60806040523480156200001157600080fd5b506040518060400160405280600c81526020016b53747265616d6147656e696360a01b8152506040518060400160405280600581526020016447454e494360d81b81525081600090816200006691906200013c565b5060016200007582826200013c565b5050600b80546001600160a01b0319163317905550620186a0600a5562000208565b634e487b7160e01b600052604160045260246000fd5b600181811c90821680620000c257607f821691505b602082108103620000e357634e487b7160e01b600052602260045260246000fd5b50919050565b601f8211156200013757600081815260208120601f850160051c81016020861015620001125750805b601f850160051c820191505b8181101562000133578281556001016200011e565b5050505b505050565b81516001600160401b0381111562000158576200015862000097565b6200017081620001698454620000ad565b84620000e9565b602080601f831160018114620001a857600084156200018f5750858301515b600019600386901b1c1916600185901b17855562000133565b600085815260208120601f198616915b82811015620001d957888601518255948401946001909101908401620001b8565b5085821015620001f85787850151600019600388901b60f8161c191681555b5050505050600190811b01905550565b61274180620002186000396000f3fe60806040526004361061014b5760003560e01c806370a08231116100b6578063b0b441061161006f578063b0b4410614610382578063b88d4fde146103a2578063c327bd4e146103c2578063c87b56dd146103d5578063e985e9c5146103f5578063fef6b3271461041557600080fd5b806370a08231146102eb5780638f449a0514610319578063957b5ba31461032157806395d89b4114610336578063a22cb4651461034b578063aa46a4001461036b57600080fd5b80632e1a7d4d116101085780632e1a7d4d1461024e578063347cfeab1461026e57806337a89986146102765780633c8f28231461028b57806342842e0e146102ab5780636352211e146102cb57600080fd5b806301ffc9a71461015057806306fdde0314610185578063081812fc146101a7578063095ea7b3146101df57806323b872dd1461020157806325609d9114610221575b600080fd5b34801561015c57600080fd5b5061017061016b366004611f46565b61042c565b60405190151581526020015b60405180910390f35b34801561019157600080fd5b5061019a61047e565b60405161017c9190611fb3565b3480156101b357600080fd5b506101c76101c2366004611fc6565b610510565b6040516001600160a01b03909116815260200161017c565b3480156101eb57600080fd5b506101ff6101fa366004611ffb565b610537565b005b34801561020d57600080fd5b506101ff61021c366004612025565b610651565b34801561022d57600080fd5b5061024161023c366004611fc6565b610682565b60405161017c9190612061565b34801561025a57600080fd5b506101ff610269366004611fc6565b610963565b6101ff610aaa565b34801561028257600080fd5b50610241610b78565b34801561029757600080fd5b506101ff6102a6366004611fc6565b610e0d565b3480156102b757600080fd5b506101ff6102c6366004612025565b610ebe565b3480156102d757600080fd5b506101c76102e6366004611fc6565b610ed9565b3480156102f757600080fd5b5061030b61030636600461214f565b610f39565b60405190815260200161017c565b6101ff610fbf565b34801561032d57600080fd5b5061024161106a565b34801561034257600080fd5b5061019a611360565b34801561035757600080fd5b506101ff61036636600461216a565b61136f565b34801561037757600080fd5b5060075461030b9081565b34801561038e57600080fd5b5061030b61039d366004611fc6565b61137a565b3480156103ae57600080fd5b506101ff6103bd366004612232565b6113db565b61030b6103d03660046122ce565b611413565b3480156103e157600080fd5b5061019a6103f0366004611fc6565b61145b565b34801561040157600080fd5b5061017061041036600461235e565b611563565b34801561042157600080fd5b5060095461030b9081565b60006001600160e01b031982166380ac58cd60e01b148061045d57506001600160e01b03198216635b5e139f60e01b145b8061047857506301ffc9a760e01b6001600160e01b03198316145b92915050565b60606000805461048d90612391565b80601f01602080910402602001604051908101604052809291908181526020018280546104b990612391565b80156105065780601f106104db57610100808354040283529160200191610506565b820191906000526020600020905b8154815290600101906020018083116104e957829003601f168201915b5050505050905090565b600061051b82611591565b506000908152600460205260409020546001600160a01b031690565b600061054282610ed9565b9050806001600160a01b0316836001600160a01b0316036105b45760405162461bcd60e51b815260206004820152602160248201527f4552433732313a20617070726f76616c20746f2063757272656e74206f776e656044820152603960f91b60648201526084015b60405180910390fd5b336001600160a01b03821614806105d057506105d08133611563565b6106425760405162461bcd60e51b815260206004820152603e60248201527f4552433732313a20617070726f76652063616c6c6572206973206e6f7420746f60448201527f6b656e206f776e6572206e6f7220617070726f76656420666f7220616c6c000060648201526084016105ab565b61064c83836115f3565b505050565b61065b3382611661565b6106775760405162461bcd60e51b81526004016105ab906123cb565b61064c8383836116bf565b6060600061068f60075490565b905060008060005b838110156106e65785600d60006106af84600161242f565b815260200190815260200160002060000154036106d4576106d160018461242f565b92505b806106de81612442565b915050610697565b5060008267ffffffffffffffff811115610702576107026121a6565b60405190808252806020026020018201604052801561073b57816020015b610728611ed7565b8152602001906001900390816107205790505b50905060005b848110156109595786600d600061075984600161242f565b8152602001908152602001600020600001540361094757600061077d82600161242f565b6000818152600d60209081526040918290208251610100810184528154815260018201546001600160a01b03908116938201939093526002820154909216928201929092526003820180549394509192909183916060840191906107e090612391565b80601f016020809104026020016040519081016040528092919081815260200182805461080c90612391565b80156108595780601f1061082e57610100808354040283529160200191610859565b820191906000526020600020905b81548152906001019060200180831161083c57829003601f168201915b5050505050815260200160048201805461087290612391565b80601f016020809104026020016040519081016040528092919081815260200182805461089e90612391565b80156108eb5780601f106108c0576101008083540402835291602001916108eb565b820191906000526020600020905b8154815290600101906020018083116108ce57829003601f168201915b5050509183525050600582015460208201526006820154604082015260079091015460ff161515606090910152845185908790811061092c5761092c61245b565b602090810291909101015261094260018661242f565b945050505b8061095181612442565b915050610741565b5095945050505050565b600b546001600160a01b031633146109bd5760405162461bcd60e51b815260206004820152601860248201527f41646472657373206973206e6f7420746865206f776e6572000000000000000060448201526064016105ab565b47811115610a0d5760405162461bcd60e51b815260206004820152601a60248201527f56616c756520686967686572207468616e2062616c616e63652e00000000000060448201526064016105ab565b600b546040516000916001600160a01b03169083908381818185875af1925050503d8060008114610a5a576040519150601f19603f3d011682016040523d82523d6000602084013e610a5f565b606091505b5050905080610aa65760405162461bcd60e51b815260206004820152601360248201527254686572652077617320616e206572726f722160681b60448201526064016105ab565b5050565b336000908152600c602052604090205460ff16610b025760405162461bcd60e51b81526020600482015260166024820152751058d8dbdd5b9d081b9bdd081cdd589cd8dc9a58995960521b60448201526064016105ab565b600a543414610b425760405162461bcd60e51b815260206004820152600c60248201526b2bb937b733903b30b63ab29760a11b60448201526064016105ab565b6040513381527f342391d881b260faba344bcdceb81718335063790ef64b017dfe1fbec5eb7d91906020015b60405180910390a1565b60606000610b8560075490565b90506000808267ffffffffffffffff811115610ba357610ba36121a6565b604051908082528060200260200182016040528015610bdc57816020015b610bc9611ed7565b815260200190600190039081610bc15790505b50905060005b83811015610e055730600d6000610bfa84600161242f565b81526020810191909152604001600020600201546001600160a01b031603610df3576000610c2982600161242f565b6000818152600d60209081526040918290208251610100810184528154815260018201546001600160a01b0390811693820193909352600282015490921692820192909252600382018054939450919290918391606084019190610c8c90612391565b80601f0160208091040260200160405190810160405280929190818152602001828054610cb890612391565b8015610d055780601f10610cda57610100808354040283529160200191610d05565b820191906000526020600020905b815481529060010190602001808311610ce857829003601f168201915b50505050508152602001600482018054610d1e90612391565b80601f0160208091040260200160405190810160405280929190818152602001828054610d4a90612391565b8015610d975780601f10610d6c57610100808354040283529160200191610d97565b820191906000526020600020905b815481529060010190602001808311610d7a57829003601f168201915b5050509183525050600582015460208201526006820154604082015260079091015460ff1615156060909101528451859087908110610dd857610dd861245b565b6020908102919091010152610dee60018661242f565b945050505b80610dfd81612442565b915050610be2565b509392505050565b610e1b600980546001019055565b6000610e2660095490565b604080516060810182528281526020808201868152338385018181526000878152600e855286902094518555915160018501559051600290930180546001600160a01b0319166001600160a01b039094169390931790925582518681529081019190915291925082917f76eeab97092ad834df0b561eae45cd54f5583ebef4240be2483d115d9fb4ed61910160405180910390a25050565b61064c838383604051806020016040528060008152506113db565b6000818152600260205260408120546001600160a01b0316806104785760405162461bcd60e51b8152602060048201526018602482015277115490cdcc8c4e881a5b9d985b1a59081d1bdad95b88125160421b60448201526064016105ab565b60006001600160a01b038216610fa35760405162461bcd60e51b815260206004820152602960248201527f4552433732313a2061646472657373207a65726f206973206e6f7420612076616044820152683634b21037bbb732b960b91b60648201526084016105ab565b506001600160a01b031660009081526003602052604090205490565b336000908152600c602052604090205460ff161561101f5760405162461bcd60e51b815260206004820152601a60248201527f4163636f756e7420616c7265616479207375627363726962656400000000000060448201526064016105ab565b336000818152600c6020908152604091829020805460ff1916600117905590519182527f0a4aaad73235c04f36913f1a722df062186fab3d31654a6d28265e505d9e16139101610b6e565b6060600061107760075490565b905060008060005b838110156110d95733600d600061109784600161242f565b81526020810191909152604001600020600101546001600160a01b0316036110c7576110c460018461242f565b92505b806110d181612442565b91505061107f565b5060008267ffffffffffffffff8111156110f5576110f56121a6565b60405190808252806020026020018201604052801561112e57816020015b61111b611ed7565b8152602001906001900390816111135790505b50905060005b848110156113575733600d600061114c84600161242f565b81526020810191909152604001600020600101546001600160a01b03160361134557600061117b82600161242f565b6000818152600d60209081526040918290208251610100810184528154815260018201546001600160a01b03908116938201939093526002820154909216928201929092526003820180549394509192909183916060840191906111de90612391565b80601f016020809104026020016040519081016040528092919081815260200182805461120a90612391565b80156112575780601f1061122c57610100808354040283529160200191611257565b820191906000526020600020905b81548152906001019060200180831161123a57829003601f168201915b5050505050815260200160048201805461127090612391565b80601f016020809104026020016040519081016040528092919081815260200182805461129c90612391565b80156112e95780601f106112be576101008083540402835291602001916112e9565b820191906000526020600020905b8154815290600101906020018083116112cc57829003601f168201915b5050509183525050600582015460208201526006820154604082015260079091015460ff161515606090910152845185908790811061132a5761132a61245b565b602090810291909101015261134060018661242f565b945050505b8061134f81612442565b915050611134565b50949350505050565b60606001805461048d90612391565b610aa633838361185b565b60008061138660095490565b90506000805b82811015610e055784600e60006113a484600161242f565b815260200190815260200160002060010154036113c9576113c660018361242f565b91505b806113d381612442565b91505061138c565b6113e53383611661565b6114015760405162461bcd60e51b81526004016105ab906123cb565b61140d84848484611929565b50505050565b6000611423600780546001019055565b600061142e60075490565b905061143a338261195c565b6114448187611a9e565b61145081868686611b31565b90505b949350505050565b606061146682611591565b6000828152600660205260408120805461147f90612391565b80601f01602080910402602001604051908101604052809291908181526020018280546114ab90612391565b80156114f85780601f106114cd576101008083540402835291602001916114f8565b820191906000526020600020905b8154815290600101906020018083116114db57829003601f168201915b50505050509050600061151660408051602081019091526000815290565b90508051600003611528575092915050565b81511561155a578082604051602001611542929190612471565b60405160208183030381529060405292505050919050565b61145384611c64565b6001600160a01b03918216600090815260056020908152604080832093909416825291909152205460ff1690565b6000818152600260205260409020546001600160a01b03166115f05760405162461bcd60e51b8152602060048201526018602482015277115490cdcc8c4e881a5b9d985b1a59081d1bdad95b88125160421b60448201526064016105ab565b50565b600081815260046020526040902080546001600160a01b0319166001600160a01b038416908117909155819061162882610ed9565b6001600160a01b03167f8c5be1e5ebec7d5bd14f71427d1e84f3dd0314c0f7b2291e5b200ac8c7c3b92560405160405180910390a45050565b60008061166d83610ed9565b9050806001600160a01b0316846001600160a01b0316148061169457506116948185611563565b806114535750836001600160a01b03166116ad84610510565b6001600160a01b031614949350505050565b826001600160a01b03166116d282610ed9565b6001600160a01b0316146117365760405162461bcd60e51b815260206004820152602560248201527f4552433732313a207472616e736665722066726f6d20696e636f72726563742060448201526437bbb732b960d91b60648201526084016105ab565b6001600160a01b0382166117985760405162461bcd60e51b8152602060048201526024808201527f4552433732313a207472616e7366657220746f20746865207a65726f206164646044820152637265737360e01b60648201526084016105ab565b6117a36000826115f3565b6001600160a01b03831660009081526003602052604081208054600192906117cc9084906124a0565b90915550506001600160a01b03821660009081526003602052604081208054600192906117fa90849061242f565b909155505060008181526002602052604080822080546001600160a01b0319166001600160a01b0386811691821790925591518493918716917fddf252ad1be2c89b69c2b068fc378daa952ba7f163c4a11628f55a4df523b3ef91a4505050565b816001600160a01b0316836001600160a01b0316036118bc5760405162461bcd60e51b815260206004820152601960248201527f4552433732313a20617070726f766520746f2063616c6c65720000000000000060448201526064016105ab565b6001600160a01b03838116600081815260056020908152604080832094871680845294825291829020805460ff191686151590811790915591519182527f17307eab39ab6107e8899845ad3d59bd9653f200f220920489ca2b5937696c31910160405180910390a3505050565b6119348484846116bf565b61194084848484611cd8565b61140d5760405162461bcd60e51b81526004016105ab906124b3565b6001600160a01b0382166119b25760405162461bcd60e51b815260206004820181905260248201527f4552433732313a206d696e7420746f20746865207a65726f206164647265737360448201526064016105ab565b6000818152600260205260409020546001600160a01b031615611a175760405162461bcd60e51b815260206004820152601c60248201527f4552433732313a20746f6b656e20616c7265616479206d696e7465640000000060448201526064016105ab565b6001600160a01b0382166000908152600360205260408120805460019290611a4090849061242f565b909155505060008181526002602052604080822080546001600160a01b0319166001600160a01b03861690811790915590518392907fddf252ad1be2c89b69c2b068fc378daa952ba7f163c4a11628f55a4df523b3ef908290a45050565b6000828152600260205260409020546001600160a01b0316611b195760405162461bcd60e51b815260206004820152602e60248201527f45524337323155524953746f726167653a2055524920736574206f66206e6f6e60448201526d32bc34b9ba32b73a103a37b5b2b760911b60648201526084016105ab565b600082815260066020526040902061064c8282612553565b604080516101008101825285815233602080830191825230838501908152606084018881526080850188905260a085018790524260c0860152600060e086018190528a8152600d909352949091208351815591516001830180546001600160a01b03199081166001600160a01b03938416179091559151600284018054909316911617905591519091906003820190611bca9082612553565b5060808201516004820190611bdf9082612553565b5060a0820151600582015560c0820151600682015560e0909101516007909101805460ff1916911515919091179055611c193330866116bf565b837f9c2c6412b197874bb9a87263f20fcacb261caadf7b97137d9a943332188d521d3330868686426000604051611c569796959493929190612613565b60405180910390a250505050565b6060611c6f82611591565b6000611c8660408051602081019091526000815290565b90506000815111611ca65760405180602001604052806000815250611cd1565b80611cb084611dd6565b604051602001611cc1929190612471565b6040516020818303038152906040525b9392505050565b60006001600160a01b0384163b15611dce57604051630a85bd0160e11b81526001600160a01b0385169063150b7a0290611d1c903390899088908890600401612673565b6020604051808303816000875af1925050508015611d57575060408051601f3d908101601f19168201909252611d54918101906126b0565b60015b611db4573d808015611d85576040519150601f19603f3d011682016040523d82523d6000602084013e611d8a565b606091505b508051600003611dac5760405162461bcd60e51b81526004016105ab906124b3565b805181602001fd5b6001600160e01b031916630a85bd0160e11b149050611453565b506001611453565b606081600003611dfd5750506040805180820190915260018152600360fc1b602082015290565b8160005b8115611e275780611e1181612442565b9150611e209050600a836126e3565b9150611e01565b60008167ffffffffffffffff811115611e4257611e426121a6565b6040519080825280601f01601f191660200182016040528015611e6c576020820181803683370190505b5090505b841561145357611e816001836124a0565b9150611e8e600a866126f7565b611e9990603061242f565b60f81b818381518110611eae57611eae61245b565b60200101906001600160f81b031916908160001a905350611ed0600a866126e3565b9450611e70565b6040518061010001604052806000815260200160006001600160a01b0316815260200160006001600160a01b03168152602001606081526020016060815260200160008152602001600081526020016000151581525090565b6001600160e01b0319811681146115f057600080fd5b600060208284031215611f5857600080fd5b8135611cd181611f30565b60005b83811015611f7e578181015183820152602001611f66565b50506000910152565b60008151808452611f9f816020860160208601611f63565b601f01601f19169290920160200192915050565b602081526000611cd16020830184611f87565b600060208284031215611fd857600080fd5b5035919050565b80356001600160a01b0381168114611ff657600080fd5b919050565b6000806040838503121561200e57600080fd5b61201783611fdf565b946020939093013593505050565b60008060006060848603121561203a57600080fd5b61204384611fdf565b925061205160208501611fdf565b9150604084013590509250925092565b60006020808301818452808551808352604092508286019150828160051b87010184880160005b8381101561214157888303603f19018552815180518452878101516001600160a01b03168885015286810151610100906120cc898701826001600160a01b03169052565b5060608083015182828801526120e483880182611f87565b92505050608080830151868303828801526120ff8382611f87565b60a0858101519089015260c0808601519089015260e094850151801515868a015294909350915061212d9050565b509588019593505090860190600101612088565b509098975050505050505050565b60006020828403121561216157600080fd5b611cd182611fdf565b6000806040838503121561217d57600080fd5b61218683611fdf565b91506020830135801515811461219b57600080fd5b809150509250929050565b634e487b7160e01b600052604160045260246000fd5b600067ffffffffffffffff808411156121d7576121d76121a6565b604051601f8501601f19908116603f011681019082821181831017156121ff576121ff6121a6565b8160405280935085815286868601111561221857600080fd5b858560208301376000602087830101525050509392505050565b6000806000806080858703121561224857600080fd5b61225185611fdf565b935061225f60208601611fdf565b925060408501359150606085013567ffffffffffffffff81111561228257600080fd5b8501601f8101871361229357600080fd5b6122a2878235602084016121bc565b91505092959194509250565b600082601f8301126122bf57600080fd5b611cd1838335602085016121bc565b600080600080608085870312156122e457600080fd5b843567ffffffffffffffff808211156122fc57600080fd5b612308888389016122ae565b9550602087013591508082111561231e57600080fd5b61232a888389016122ae565b9450604087013591508082111561234057600080fd5b5061234d878288016122ae565b949793965093946060013593505050565b6000806040838503121561237157600080fd5b61237a83611fdf565b915061238860208401611fdf565b90509250929050565b600181811c908216806123a557607f821691505b6020821081036123c557634e487b7160e01b600052602260045260246000fd5b50919050565b6020808252602e908201527f4552433732313a2063616c6c6572206973206e6f7420746f6b656e206f776e6560408201526d1c881b9bdc88185c1c1c9bdd995960921b606082015260800190565b634e487b7160e01b600052601160045260246000fd5b8082018082111561047857610478612419565b60006001820161245457612454612419565b5060010190565b634e487b7160e01b600052603260045260246000fd5b60008351612483818460208801611f63565b835190830190612497818360208801611f63565b01949350505050565b8181038181111561047857610478612419565b60208082526032908201527f4552433732313a207472616e7366657220746f206e6f6e20455243373231526560408201527131b2b4bb32b91034b6b83632b6b2b73a32b960711b606082015260800190565b601f82111561064c57600081815260208120601f850160051c8101602086101561252c5750805b601f850160051c820191505b8181101561254b57828155600101612538565b505050505050565b815167ffffffffffffffff81111561256d5761256d6121a6565b6125818161257b8454612391565b84612505565b602080601f8311600181146125b6576000841561259e5750858301515b600019600386901b1c1916600185901b17855561254b565b600085815260208120601f198616915b828110156125e5578886015182559484019460019091019084016125c6565b50858210156126035787850151600019600388901b60f8161c191681555b5050505050600190811b01905550565b6001600160a01b0388811682528716602082015260e06040820181905260009061263f90830188611f87565b82810360608401526126518188611f87565b6080840196909652505060a0810192909252151560c090910152949350505050565b6001600160a01b03858116825284166020820152604081018390526080606082018190526000906126a690830184611f87565b9695505050505050565b6000602082840312156126c257600080fd5b8151611cd181611f30565b634e487b7160e01b600052601260045260246000fd5b6000826126f2576126f26126cd565b500490565b600082612706576127066126cd565b50069056fea2646970667358221220dd671193f1cb80b6c4f8e1957427ecc6d9d6d52bdb5733e97aa5cfc84d1ef48e64736f6c63430008110033",
  "linkReferences": {},
  "deployedLinkReferences": {}
}