{
  "_format": "hh-sol-artifact-1",
  "contractName": "FileNFT",
  "sourceName": "contracts/Genic.sol",
  "abi": [
    {
      "inputs": [],
      "stateMutability": "nonpayable",
      "type": "constructor"
    },
    {
      "anonymous": false,
      "inputs": [
        {
          "indexed": true,
          "internalType": "address",
          "name": "owner",
          "type": "address"
        },
        {
          "indexed": true,
          "internalType": "address",
          "name": "approved",
          "type": "address"
        },
        {
          "indexed": true,
          "internalType": "uint256",
          "name": "tokenId",
          "type": "uint256"
        }
      ],
      "name": "Approval",
      "type": "event"
    },
    {
      "anonymous": false,
      "inputs": [
        {
          "indexed": true,
          "internalType": "address",
          "name": "owner",
          "type": "address"
        },
        {
          "indexed": true,
          "internalType": "address",
          "name": "operator",
          "type": "address"
        },
        {
          "indexed": false,
          "internalType": "bool",
          "name": "approved",
          "type": "bool"
        }
      ],
      "name": "ApprovalForAll",
      "type": "event"
    },
    {
      "anonymous": false,
      "inputs": [
        {
          "indexed": false,
          "internalType": "address",
          "name": "account",
          "type": "address"
        }
      ],
      "name": "MonthlyPaymentMade",
      "type": "event"
    },
    {
      "anonymous": false,
      "inputs": [
        {
          "indexed": true,
          "internalType": "uint256",
          "name": "tokenId",
          "type": "uint256"
        },
        {
          "indexed": false,
          "internalType": "address",
          "name": "owner",
          "type": "address"
        },
        {
          "indexed": false,
          "internalType": "address",
          "name": "storageDrive",
          "type": "address"
        },
        {
          "indexed": false,
          "internalType": "uint256",
          "name": "dateCreated",
          "type": "uint256"
        },
        {
          "indexed": false,
          "internalType": "bool",
          "name": "shared",
          "type": "bool"
        }
      ],
      "name": "StorageItemCreated",
      "type": "event"
    },
    {
      "anonymous": false,
      "inputs": [
        {
          "indexed": false,
          "internalType": "address",
          "name": "account",
          "type": "address"
        }
      ],
      "name": "SubscriptionMade",
      "type": "event"
    },
    {
      "anonymous": false,
      "inputs": [
        {
          "indexed": true,
          "internalType": "address",
          "name": "from",
          "type": "address"
        },
        {
          "indexed": true,
          "internalType": "address",
          "name": "to",
          "type": "address"
        },
        {
          "indexed": true,
          "internalType": "uint256",
          "name": "tokenId",
          "type": "uint256"
        }
      ],
      "name": "Transfer",
      "type": "event"
    },
    {
      "anonymous": false,
      "inputs": [
        {
          "indexed": true,
          "internalType": "uint256",
          "name": "vId",
          "type": "uint256"
        },
        {
          "indexed": false,
          "internalType": "uint256",
          "name": "tokenId",
          "type": "uint256"
        },
        {
          "indexed": false,
          "internalType": "address",
          "name": "visitor",
          "type": "address"
        }
      ],
      "name": "ViewItemCreated",
      "type": "event"
    },
    {
      "inputs": [],
      "name": "_tokenIds",
      "outputs": [
        {
          "internalType": "uint256",
          "name": "_value",
          "type": "uint256"
        }
      ],
      "stateMutability": "view",
      "type": "function"
    },
    {
      "inputs": [],
      "name": "_viewIds",
      "outputs": [
        {
          "internalType": "uint256",
          "name": "_value",
          "type": "uint256"
        }
      ],
      "stateMutability": "view",
      "type": "function"
    },
    {
      "inputs": [
        {
          "internalType": "address",
          "name": "to",
          "type": "address"
        },
        {
          "internalType": "uint256",
          "name": "tokenId",
          "type": "uint256"
        }
      ],
      "name": "approve",
      "outputs": [],
      "stateMutability": "nonpayable",
      "type": "function"
    },
    {
      "inputs": [
        {
          "internalType": "address",
          "name": "owner",
          "type": "address"
        }
      ],
      "name": "balanceOf",
      "outputs": [
        {
          "internalType": "uint256",
          "name": "",
          "type": "uint256"
        }
      ],
      "stateMutability": "view",
      "type": "function"
    },
    {
      "inputs": [
        {
          "internalType": "string",
          "name": "tokenURI",
          "type": "string"
        }
      ],
      "name": "createFile",
      "outputs": [
        {
          "internalType": "uint256",
          "name": "",
          "type": "uint256"
        }
      ],
      "stateMutability": "payable",
      "type": "function"
    },
    {
      "inputs": [
        {
          "internalType": "uint256",
          "name": "tokenId",
          "type": "uint256"
        }
      ],
      "name": "createViewItem",
      "outputs": [],
      "stateMutability": "nonpayable",
      "type": "function"
    },
    {
      "inputs": [],
      "name": "fetchAllStorageItems",
      "outputs": [
        {
          "components": [
            {
              "internalType": "uint256",
              "name": "tokenId",
              "type": "uint256"
            },
            {
              "internalType": "address",
              "name": "owner",
              "type": "address"
            },
            {
              "internalType": "address",
              "name": "storageDrive",
              "type": "address"
            },
            {
              "internalType": "uint256",
              "name": "dateCreated",
              "type": "uint256"
            },
            {
              "internalType": "bool",
              "name": "shared",
              "type": "bool"
            }
          ],
          "internalType": "struct FileNFT.StorageItem[]",
          "name": "",
          "type": "tuple[]"
        }
      ],
      "stateMutability": "view",
      "type": "function"
    },
    {
      "inputs": [],
      "name": "fetchMyFiles",
      "outputs": [
        {
          "components": [
            {
              "internalType": "uint256",
              "name": "tokenId",
              "type": "uint256"
            },
            {
              "internalType": "address",
              "name": "owner",
              "type": "address"
            },
            {
              "internalType": "address",
              "name": "storageDrive",
              "type": "address"
            },
            {
              "internalType": "uint256",
              "name": "dateCreated",
              "type": "uint256"
            },
            {
              "internalType": "bool",
              "name": "shared",
              "type": "bool"
            }
          ],
          "internalType": "struct FileNFT.StorageItem[]",
          "name": "",
          "type": "tuple[]"
        }
      ],
      "stateMutability": "view",
      "type": "function"
    },
    {
      "inputs": [
        {
          "internalType": "uint256",
          "name": "_tokenId",
          "type": "uint256"
        }
      ],
      "name": "fetchOneNews",
      "outputs": [
        {
          "components": [
            {
              "internalType": "uint256",
              "name": "tokenId",
              "type": "uint256"
            },
            {
              "internalType": "address",
              "name": "owner",
              "type": "address"
            },
            {
              "internalType": "address",
              "name": "storageDrive",
              "type": "address"
            },
            {
              "internalType": "uint256",
              "name": "dateCreated",
              "type": "uint256"
            },
            {
              "internalType": "bool",
              "name": "shared",
              "type": "bool"
            }
          ],
          "internalType": "struct FileNFT.StorageItem[]",
          "name": "",
          "type": "tuple[]"
        }
      ],
      "stateMutability": "view",
      "type": "function"
    },
    {
      "inputs": [
        {
          "internalType": "uint256",
          "name": "_tokenId",
          "type": "uint256"
        }
      ],
      "name": "fetchViews",
      "outputs": [
        {
          "internalType": "uint256",
          "name": "",
          "type": "uint256"
        }
      ],
      "stateMutability": "view",
      "type": "function"
    },
    {
      "inputs": [
        {
          "internalType": "uint256",
          "name": "tokenId",
          "type": "uint256"
        }
      ],
      "name": "getApproved",
      "outputs": [
        {
          "internalType": "address",
          "name": "",
          "type": "address"
        }
      ],
      "stateMutability": "view",
      "type": "function"
    },
    {
      "inputs": [
        {
          "internalType": "address",
          "name": "owner",
          "type": "address"
        },
        {
          "internalType": "address",
          "name": "operator",
          "type": "address"
        }
      ],
      "name": "isApprovedForAll",
      "outputs": [
        {
          "internalType": "bool",
          "name": "",
          "type": "bool"
        }
      ],
      "stateMutability": "view",
      "type": "function"
    },
    {
      "inputs": [],
      "name": "name",
      "outputs": [
        {
          "internalType": "string",
          "name": "",
          "type": "string"
        }
      ],
      "stateMutability": "view",
      "type": "function"
    },
    {
      "inputs": [
        {
          "internalType": "uint256",
          "name": "tokenId",
          "type": "uint256"
        }
      ],
      "name": "ownerOf",
      "outputs": [
        {
          "internalType": "address",
          "name": "",
          "type": "address"
        }
      ],
      "stateMutability": "view",
      "type": "function"
    },
    {
      "inputs": [],
      "name": "payMonthlyValue",
      "outputs": [],
      "stateMutability": "payable",
      "type": "function"
    },
    {
      "inputs": [
        {
          "internalType": "address",
          "name": "from",
          "type": "address"
        },
        {
          "internalType": "address",
          "name": "to",
          "type": "address"
        },
        {
          "internalType": "uint256",
          "name": "tokenId",
          "type": "uint256"
        }
      ],
      "name": "safeTransferFrom",
      "outputs": [],
      "stateMutability": "nonpayable",
      "type": "function"
    },
    {
      "inputs": [
        {
          "internalType": "address",
          "name": "from",
          "type": "address"
        },
        {
          "internalType": "address",
          "name": "to",
          "type": "address"
        },
        {
          "internalType": "uint256",
          "name": "tokenId",
          "type": "uint256"
        },
        {
          "internalType": "bytes",
          "name": "data",
          "type": "bytes"
        }
      ],
      "name": "safeTransferFrom",
      "outputs": [],
      "stateMutability": "nonpayable",
      "type": "function"
    },
    {
      "inputs": [
        {
          "internalType": "address",
          "name": "operator",
          "type": "address"
        },
        {
          "internalType": "bool",
          "name": "approved",
          "type": "bool"
        }
      ],
      "name": "setApprovalForAll",
      "outputs": [],
      "stateMutability": "nonpayable",
      "type": "function"
    },
    {
      "inputs": [],
      "name": "subscribe",
      "outputs": [],
      "stateMutability": "payable",
      "type": "function"
    },
    {
      "inputs": [
        {
          "internalType": "bytes4",
          "name": "interfaceId",
          "type": "bytes4"
        }
      ],
      "name": "supportsInterface",
      "outputs": [
        {
          "internalType": "bool",
          "name": "",
          "type": "bool"
        }
      ],
      "stateMutability": "view",
      "type": "function"
    },
    {
      "inputs": [],
      "name": "symbol",
      "outputs": [
        {
          "internalType": "string",
          "name": "",
          "type": "string"
        }
      ],
      "stateMutability": "view",
      "type": "function"
    },
    {
      "inputs": [
        {
          "internalType": "uint256",
          "name": "tokenId",
          "type": "uint256"
        }
      ],
      "name": "tokenURI",
      "outputs": [
        {
          "internalType": "string",
          "name": "",
          "type": "string"
        }
      ],
      "stateMutability": "view",
      "type": "function"
    },
    {
      "inputs": [
        {
          "internalType": "address",
          "name": "from",
          "type": "address"
        },
        {
          "internalType": "address",
          "name": "to",
          "type": "address"
        },
        {
          "internalType": "uint256",
          "name": "tokenId",
          "type": "uint256"
        }
      ],
      "name": "transferFrom",
      "outputs": [],
      "stateMutability": "nonpayable",
      "type": "function"
    },
    {
      "inputs": [
        {
          "internalType": "uint256",
          "name": "value",
          "type": "uint256"
        }
      ],
      "name": "withdraw",
      "outputs": [],
      "stateMutability": "nonpayable",
      "type": "function"
    }
  ],
  "bytecode": "0x60806040523480156200001157600080fd5b5060408051808201825260088082526726b7b6b4b73a32b960c11b602080840182905284518086019095529184529083015290600062000052838262000121565b50600162000061828262000121565b5050600b80546001600160a01b0319163317905550620001ed565b634e487b7160e01b600052604160045260246000fd5b600181811c90821680620000a757607f821691505b602082108103620000c857634e487b7160e01b600052602260045260246000fd5b50919050565b601f8211156200011c57600081815260208120601f850160051c81016020861015620000f75750805b601f850160051c820191505b81811015620001185782815560010162000103565b5050505b505050565b81516001600160401b038111156200013d576200013d6200007c565b62000155816200014e845462000092565b84620000ce565b602080601f8311600181146200018d5760008415620001745750858301515b600019600386901b1c1916600185901b17855562000118565b600085815260208120601f198616915b82811015620001be578886015182559484019460019091019084016200019d565b5085821015620001dd5787850151600019600388901b60f8161c191681555b5050505050600190811b01905550565b61221280620001fd6000396000f3fe60806040526004361061014b5760003560e01c80636352211e116100b6578063aa46a4001161006f578063aa46a4001461037e578063b0b4410614610395578063b88d4fde146103b5578063c87b56dd146103d5578063e985e9c5146103f5578063fef6b3271461041557600080fd5b80636352211e146102ec57806370a082311461030c5780638f449a051461032c578063957b5ba31461033457806395d89b4114610349578063a22cb4651461035e57600080fd5b80632e1a7d4d116101085780632e1a7d4d1461024e578063347cfeab1461026e57806337a89986146102765780633c8f28231461028b57806342842e0e146102ab5780634dfdc4fb146102cb57600080fd5b806301ffc9a71461015057806306fdde0314610185578063081812fc146101a7578063095ea7b3146101df57806323b872dd1461020157806325609d9114610221575b600080fd5b34801561015c57600080fd5b5061017061016b366004611b50565b61042c565b60405190151581526020015b60405180910390f35b34801561019157600080fd5b5061019a61047e565b60405161017c9190611bbd565b3480156101b357600080fd5b506101c76101c2366004611bd0565b610510565b6040516001600160a01b03909116815260200161017c565b3480156101eb57600080fd5b506101ff6101fa366004611c05565b610537565b005b34801561020d57600080fd5b506101ff61021c366004611c2f565b610651565b34801561022d57600080fd5b5061024161023c366004611bd0565b610682565b60405161017c9190611c6b565b34801561025a57600080fd5b506101ff610269366004611bd0565b61084a565b6101ff610991565b34801561028257600080fd5b50610241610a5f565b34801561029757600080fd5b506101ff6102a6366004611bd0565b610bdb565b3480156102b757600080fd5b506101ff6102c6366004611c2f565b610c8c565b6102de6102d9366004611d73565b610ca7565b60405190815260200161017c565b3480156102f857600080fd5b506101c7610307366004611bd0565b610ce1565b34801561031857600080fd5b506102de610327366004611dbc565b610d41565b6101ff610dc7565b34801561034057600080fd5b50610241610e72565b34801561035557600080fd5b5061019a61104f565b34801561036a57600080fd5b506101ff610379366004611dd7565b61105e565b34801561038a57600080fd5b506007546102de9081565b3480156103a157600080fd5b506102de6103b0366004611bd0565b611069565b3480156103c157600080fd5b506101ff6103d0366004611e13565b6110ca565b3480156103e157600080fd5b5061019a6103f0366004611bd0565b611102565b34801561040157600080fd5b50610170610410366004611e8f565b611212565b34801561042157600080fd5b506009546102de9081565b60006001600160e01b031982166380ac58cd60e01b148061045d57506001600160e01b03198216635b5e139f60e01b145b8061047857506301ffc9a760e01b6001600160e01b03198316145b92915050565b60606000805461048d90611ec2565b80601f01602080910402602001604051908101604052809291908181526020018280546104b990611ec2565b80156105065780601f106104db57610100808354040283529160200191610506565b820191906000526020600020905b8154815290600101906020018083116104e957829003601f168201915b5050505050905090565b600061051b82611240565b506000908152600460205260409020546001600160a01b031690565b600061054282610ce1565b9050806001600160a01b0316836001600160a01b0316036105b45760405162461bcd60e51b815260206004820152602160248201527f4552433732313a20617070726f76616c20746f2063757272656e74206f776e656044820152603960f91b60648201526084015b60405180910390fd5b336001600160a01b03821614806105d057506105d08133611212565b6106425760405162461bcd60e51b815260206004820152603e60248201527f4552433732313a20617070726f76652063616c6c6572206973206e6f7420746f60448201527f6b656e206f776e6572206e6f7220617070726f76656420666f7220616c6c000060648201526084016105ab565b61064c83836112a2565b505050565b61065b3382611310565b6106775760405162461bcd60e51b81526004016105ab90611efc565b61064c83838361136e565b6060600061068f60075490565b905060008060005b838110156106e65785600d60006106af846001611f60565b815260200190815260200160002060000154036106d4576106d1600184611f60565b92505b806106de81611f73565b915050610697565b5060008267ffffffffffffffff81111561070257610702611ce7565b60405190808252806020026020018201604052801561075b57816020015b6040805160a0810182526000808252602080830182905292820181905260608201819052608082015282526000199092019101816107205790505b50905060005b848110156108405786600d6000610779846001611f60565b8152602001908152602001600020600001540361082e57600061079d826001611f60565b6000818152600d6020908152604091829020825160a0810184528154815260018201546001600160a01b039081169382019390935260028201549092169282019290925260038201546060820152600482015460ff16151560808201528551929350909185908790811061081357610813611f8c565b6020908102919091010152610829600186611f60565b945050505b8061083881611f73565b915050610761565b5095945050505050565b600b546001600160a01b031633146108a45760405162461bcd60e51b815260206004820152601860248201527f41646472657373206973206e6f7420746865206f776e6572000000000000000060448201526064016105ab565b478111156108f45760405162461bcd60e51b815260206004820152601a60248201527f56616c756520686967686572207468616e2062616c616e63652e00000000000060448201526064016105ab565b600b546040516000916001600160a01b03169083908381818185875af1925050503d8060008114610941576040519150601f19603f3d011682016040523d82523d6000602084013e610946565b606091505b505090508061098d5760405162461bcd60e51b815260206004820152601360248201527254686572652077617320616e206572726f722160681b60448201526064016105ab565b5050565b336000908152600c602052604090205460ff166109e95760405162461bcd60e51b81526020600482015260166024820152751058d8dbdd5b9d081b9bdd081cdd589cd8dc9a58995960521b60448201526064016105ab565b600a543414610a295760405162461bcd60e51b815260206004820152600c60248201526b2bb937b733903b30b63ab29760a11b60448201526064016105ab565b6040513381527f342391d881b260faba344bcdceb81718335063790ef64b017dfe1fbec5eb7d91906020015b60405180910390a1565b60606000610a6c60075490565b90506000808267ffffffffffffffff811115610a8a57610a8a611ce7565b604051908082528060200260200182016040528015610ae357816020015b6040805160a081018252600080825260208083018290529282018190526060820181905260808201528252600019909201910181610aa85790505b50905060005b83811015610bd35730600d6000610b01846001611f60565b81526020810191909152604001600020600201546001600160a01b031603610bc1576000610b30826001611f60565b6000818152600d6020908152604091829020825160a0810184528154815260018201546001600160a01b039081169382019390935260028201549092169282019290925260038201546060820152600482015460ff161515608082015285519293509091859087908110610ba657610ba6611f8c565b6020908102919091010152610bbc600186611f60565b945050505b80610bcb81611f73565b915050610ae9565b509392505050565b610be9600980546001019055565b6000610bf460095490565b604080516060810182528281526020808201868152338385018181526000878152600e855286902094518555915160018501559051600290930180546001600160a01b0319166001600160a01b039094169390931790925582518681529081019190915291925082917f76eeab97092ad834df0b561eae45cd54f5583ebef4240be2483d115d9fb4ed61910160405180910390a25050565b61064c838383604051806020016040528060008152506110ca565b6000610cb7600780546001019055565b6000610cc260075490565b9050610cce338261150a565b610cd8818461164c565b610478816116df565b6000818152600260205260408120546001600160a01b0316806104785760405162461bcd60e51b8152602060048201526018602482015277115490cdcc8c4e881a5b9d985b1a59081d1bdad95b88125160421b60448201526064016105ab565b60006001600160a01b038216610dab5760405162461bcd60e51b815260206004820152602960248201527f4552433732313a2061646472657373207a65726f206973206e6f7420612076616044820152683634b21037bbb732b960b91b60648201526084016105ab565b506001600160a01b031660009081526003602052604090205490565b336000908152600c602052604090205460ff1615610e275760405162461bcd60e51b815260206004820152601a60248201527f4163636f756e7420616c7265616479207375627363726962656400000000000060448201526064016105ab565b336000818152600c6020908152604091829020805460ff1916600117905590519182527f0a4aaad73235c04f36913f1a722df062186fab3d31654a6d28265e505d9e16139101610a55565b60606000610e7f60075490565b905060008060005b83811015610ee15733600d6000610e9f846001611f60565b81526020810191909152604001600020600101546001600160a01b031603610ecf57610ecc600184611f60565b92505b80610ed981611f73565b915050610e87565b5060008267ffffffffffffffff811115610efd57610efd611ce7565b604051908082528060200260200182016040528015610f5657816020015b6040805160a081018252600080825260208083018290529282018190526060820181905260808201528252600019909201910181610f1b5790505b50905060005b848110156110465733600d6000610f74846001611f60565b81526020810191909152604001600020600101546001600160a01b031603611034576000610fa3826001611f60565b6000818152600d6020908152604091829020825160a0810184528154815260018201546001600160a01b039081169382019390935260028201549092169282019290925260038201546060820152600482015460ff16151560808201528551929350909185908790811061101957611019611f8c565b602090810291909101015261102f600186611f60565b945050505b8061103e81611f73565b915050610f5c565b50949350505050565b60606001805461048d90611ec2565b61098d3383836117c3565b60008061107560095490565b90506000805b82811015610bd35784600e6000611093846001611f60565b815260200190815260200160002060010154036110b8576110b5600183611f60565b91505b806110c281611f73565b91505061107b565b6110d43383611310565b6110f05760405162461bcd60e51b81526004016105ab90611efc565b6110fc84848484611891565b50505050565b606061110d82611240565b6000828152600660205260408120805461112690611ec2565b80601f016020809104026020016040519081016040528092919081815260200182805461115290611ec2565b801561119f5780601f106111745761010080835404028352916020019161119f565b820191906000526020600020905b81548152906001019060200180831161118257829003601f168201915b5050505050905060006111bd60408051602081019091526000815290565b905080516000036111cf575092915050565b8151156112015780826040516020016111e9929190611fa2565b60405160208183030381529060405292505050919050565b61120a846118c4565b949350505050565b6001600160a01b03918216600090815260056020908152604080832093909416825291909152205460ff1690565b6000818152600260205260409020546001600160a01b031661129f5760405162461bcd60e51b8152602060048201526018602482015277115490cdcc8c4e881a5b9d985b1a59081d1bdad95b88125160421b60448201526064016105ab565b50565b600081815260046020526040902080546001600160a01b0319166001600160a01b03841690811790915581906112d782610ce1565b6001600160a01b03167f8c5be1e5ebec7d5bd14f71427d1e84f3dd0314c0f7b2291e5b200ac8c7c3b92560405160405180910390a45050565b60008061131c83610ce1565b9050806001600160a01b0316846001600160a01b0316148061134357506113438185611212565b8061120a5750836001600160a01b031661135c84610510565b6001600160a01b031614949350505050565b826001600160a01b031661138182610ce1565b6001600160a01b0316146113e55760405162461bcd60e51b815260206004820152602560248201527f4552433732313a207472616e736665722066726f6d20696e636f72726563742060448201526437bbb732b960d91b60648201526084016105ab565b6001600160a01b0382166114475760405162461bcd60e51b8152602060048201526024808201527f4552433732313a207472616e7366657220746f20746865207a65726f206164646044820152637265737360e01b60648201526084016105ab565b6114526000826112a2565b6001600160a01b038316600090815260036020526040812080546001929061147b908490611fd1565b90915550506001600160a01b03821660009081526003602052604081208054600192906114a9908490611f60565b909155505060008181526002602052604080822080546001600160a01b0319166001600160a01b0386811691821790925591518493918716917fddf252ad1be2c89b69c2b068fc378daa952ba7f163c4a11628f55a4df523b3ef91a4505050565b6001600160a01b0382166115605760405162461bcd60e51b815260206004820181905260248201527f4552433732313a206d696e7420746f20746865207a65726f206164647265737360448201526064016105ab565b6000818152600260205260409020546001600160a01b0316156115c55760405162461bcd60e51b815260206004820152601c60248201527f4552433732313a20746f6b656e20616c7265616479206d696e7465640000000060448201526064016105ab565b6001600160a01b03821660009081526003602052604081208054600192906115ee908490611f60565b909155505060008181526002602052604080822080546001600160a01b0319166001600160a01b03861690811790915590518392907fddf252ad1be2c89b69c2b068fc378daa952ba7f163c4a11628f55a4df523b3ef908290a45050565b6000828152600260205260409020546001600160a01b03166116c75760405162461bcd60e51b815260206004820152602e60248201527f45524337323155524953746f726167653a2055524920736574206f66206e6f6e60448201526d32bc34b9ba32b73a103a37b5b2b760911b60648201526084016105ab565b600082815260066020526040902061064c8282612032565b6040805160a0810182528281523360208083018281523084860181815242606087019081526000608088018181528a8252600d909652979097209551865591516001860180546001600160a01b03199081166001600160a01b0393841617909155925160028701805490941691161790915593516003840155516004909201805460ff191692151592909217909155611778918361136e565b60408051338152306020820152428183015260006060820152905182917f7d13d9c1f40780d58d02bd1ebd99f5e78d97e0762d439c82e799521b856c3c38919081900360800190a250565b816001600160a01b0316836001600160a01b0316036118245760405162461bcd60e51b815260206004820152601960248201527f4552433732313a20617070726f766520746f2063616c6c65720000000000000060448201526064016105ab565b6001600160a01b03838116600081815260056020908152604080832094871680845294825291829020805460ff191686151590811790915591519182527f17307eab39ab6107e8899845ad3d59bd9653f200f220920489ca2b5937696c31910160405180910390a3505050565b61189c84848461136e565b6118a884848484611938565b6110fc5760405162461bcd60e51b81526004016105ab906120f2565b60606118cf82611240565b60006118e660408051602081019091526000815290565b905060008151116119065760405180602001604052806000815250611931565b8061191084611a39565b604051602001611921929190611fa2565b6040516020818303038152906040525b9392505050565b60006001600160a01b0384163b15611a2e57604051630a85bd0160e11b81526001600160a01b0385169063150b7a029061197c903390899088908890600401612144565b6020604051808303816000875af19250505080156119b7575060408051601f3d908101601f191682019092526119b491810190612181565b60015b611a14573d8080156119e5576040519150601f19603f3d011682016040523d82523d6000602084013e6119ea565b606091505b508051600003611a0c5760405162461bcd60e51b81526004016105ab906120f2565b805181602001fd5b6001600160e01b031916630a85bd0160e11b14905061120a565b506001949350505050565b606081600003611a605750506040805180820190915260018152600360fc1b602082015290565b8160005b8115611a8a5780611a7481611f73565b9150611a839050600a836121b4565b9150611a64565b60008167ffffffffffffffff811115611aa557611aa5611ce7565b6040519080825280601f01601f191660200182016040528015611acf576020820181803683370190505b5090505b841561120a57611ae4600183611fd1565b9150611af1600a866121c8565b611afc906030611f60565b60f81b818381518110611b1157611b11611f8c565b60200101906001600160f81b031916908160001a905350611b33600a866121b4565b9450611ad3565b6001600160e01b03198116811461129f57600080fd5b600060208284031215611b6257600080fd5b813561193181611b3a565b60005b83811015611b88578181015183820152602001611b70565b50506000910152565b60008151808452611ba9816020860160208601611b6d565b601f01601f19169290920160200192915050565b6020815260006119316020830184611b91565b600060208284031215611be257600080fd5b5035919050565b80356001600160a01b0381168114611c0057600080fd5b919050565b60008060408385031215611c1857600080fd5b611c2183611be9565b946020939093013593505050565b600080600060608486031215611c4457600080fd5b611c4d84611be9565b9250611c5b60208501611be9565b9150604084013590509250925092565b602080825282518282018190526000919060409081850190868401855b82811015611cda57815180518552868101516001600160a01b03908116888701528682015116868601526060808201519086015260809081015115159085015260a09093019290850190600101611c88565b5091979650505050505050565b634e487b7160e01b600052604160045260246000fd5b600067ffffffffffffffff80841115611d1857611d18611ce7565b604051601f8501601f19908116603f01168101908282118183101715611d4057611d40611ce7565b81604052809350858152868686011115611d5957600080fd5b858560208301376000602087830101525050509392505050565b600060208284031215611d8557600080fd5b813567ffffffffffffffff811115611d9c57600080fd5b8201601f81018413611dad57600080fd5b61120a84823560208401611cfd565b600060208284031215611dce57600080fd5b61193182611be9565b60008060408385031215611dea57600080fd5b611df383611be9565b915060208301358015158114611e0857600080fd5b809150509250929050565b60008060008060808587031215611e2957600080fd5b611e3285611be9565b9350611e4060208601611be9565b925060408501359150606085013567ffffffffffffffff811115611e6357600080fd5b8501601f81018713611e7457600080fd5b611e8387823560208401611cfd565b91505092959194509250565b60008060408385031215611ea257600080fd5b611eab83611be9565b9150611eb960208401611be9565b90509250929050565b600181811c90821680611ed657607f821691505b602082108103611ef657634e487b7160e01b600052602260045260246000fd5b50919050565b6020808252602e908201527f4552433732313a2063616c6c6572206973206e6f7420746f6b656e206f776e6560408201526d1c881b9bdc88185c1c1c9bdd995960921b606082015260800190565b634e487b7160e01b600052601160045260246000fd5b8082018082111561047857610478611f4a565b600060018201611f8557611f85611f4a565b5060010190565b634e487b7160e01b600052603260045260246000fd5b60008351611fb4818460208801611b6d565b835190830190611fc8818360208801611b6d565b01949350505050565b8181038181111561047857610478611f4a565b601f82111561064c57600081815260208120601f850160051c8101602086101561200b5750805b601f850160051c820191505b8181101561202a57828155600101612017565b505050505050565b815167ffffffffffffffff81111561204c5761204c611ce7565b6120608161205a8454611ec2565b84611fe4565b602080601f831160018114612095576000841561207d5750858301515b600019600386901b1c1916600185901b17855561202a565b600085815260208120601f198616915b828110156120c4578886015182559484019460019091019084016120a5565b50858210156120e25787850151600019600388901b60f8161c191681555b5050505050600190811b01905550565b60208082526032908201527f4552433732313a207472616e7366657220746f206e6f6e20455243373231526560408201527131b2b4bb32b91034b6b83632b6b2b73a32b960711b606082015260800190565b6001600160a01b038581168252841660208201526040810183905260806060820181905260009061217790830184611b91565b9695505050505050565b60006020828403121561219357600080fd5b815161193181611b3a565b634e487b7160e01b600052601260045260246000fd5b6000826121c3576121c361219e565b500490565b6000826121d7576121d761219e565b50069056fea2646970667358221220dd172221e273ac9549cb878fb950dab0ed700b9938b967da551ad5876cd2700264736f6c63430008110033",
  "linkReferences": {},
  "deployedLinkReferences": {}
}